:0800000040C0FECFFDCFFCCF94
:10000800FBCFFACFF9CFF8CFF7CFFDC0F5CFF4CFBC
:10001800F3CFF2CFF1CFF0CFEFCFEECFEDCF102768
:10002800E80364000A00010000100001100001004C
:10003800000000005365743A6D6F64653A25640DDD
:100048000053657475700D007725645F25643A2543
:10005800643A25640D007365745F6D6F64653A25B5
:10006800643A207725645F25643A25643A25640D4F
:10007800000004000A0038000000F894EE27ECBBEA
:10008800F1E0FBBFEBBFE5BF8DE0A2E0BB27ED933E
:100098008A95E9F780E094E0A0E6ED930197E9F707
:1000A800EAE7F0E085919591009761F0A591B59107
:1000B80005901590BF01F00105900D920197E1F7A9
:1000C800FB01F0CFEFE5EDBFE4E0EEBFC0E6D1E025
:1000D8000DC1ECE3F0E03CD33ED384E0EDD22696AC
:1000E800E1E0EA1531F45394E7E1E51508F4552405
:1000F8001BC0E2E0EA1531F44394EBE3E41508F49D
:10010800442412C0E3E0EA1531F47394EBE3E715F5
:1001180008F4772409C0E4E0EA1531F46394E7E0D1
:10012800E61510F4E1E06E2E0895E9E4F0E010D34E
:1001380080E0C2D22296A394E4E0EA1550F4AA24FF
:100148005A924A92A72D6BD16A929A928A92AB2DB3
:100158007FD1089506D3FCD3E0936501089504D3B5
:10016800EF5FE093660103D3A63018F0E0E0E09378
:100178006601E2B3E370E2BBE5B3E07FE5BBC79A93
:10018800F3D2E03021F465B3A52DF4D22BC0EFD221
:10019800A13059F465B3A52DBB27EAE0F0E0F5D30B
:1001A800EF70E62BE5BBC79820C0E1D2A23021F45E
:1001B80065B3A42DDFD216C0DAD2A33019F465B323
:1001C800A42D0CC0D4D2A43021F465B3A72DD2D26B
:1001D80009C0CDD2A53049F465B3A72DBB27EAE005
:1001E800F0E0D3D3EF70E62BE5BBBBD2E03029F0CB
:1001F800BED2A43008F4C3D205C0C1D2B8D2A3304D
:1002080009F4C79808950A921A92FA926A937A930F
:100218008A939A93AA93BA93EA93FA93EFB7EA93D5
:10022800E3E8E2BFA0916001B0916101D7D338F44F
:10023800A0E6B1E0ED91FD913197FE93EE93A0E039
:10024800B099A1E0E0916201A2D231F0E09162019F
:10025800E03009F43EDFA2D2B0990DC0F601319624
:100268006F01ECEDF5E0EC15FD0520F4E8EEF3E0A8
:100278006F012FDF02C0CC24DD24A0E0B199A1E0FA
:10028800E091630184D231F0E0916301E03009F438
:100298004CDF8AD2A0E0B299A1E0E091640177D264
:1002A80031F0E0916401E03009F454DF83D2E09149
:1002B8006701EF5FE0936701A0916701A43018F030
:1002C800E0E0E0936701E0916701E03009F447DF7F
:1002D800E991EFBFF991E991B991A9919991899122
:1002E80079916991F990199009901895E8EFE7BB11
:1002F800E7E0E8BBEFE7E4BBE0E0E5BBEFEFE1BB3D
:10030800E0E0E2BBE3E0E3BFE3E8E2BFE0E0EFBD4B
:10031800EEBDEDBDECBDE7BDE6BDEBBDEABDE9BD9B
:10032800E8BDE2BDE5BDE4BDE3BDE1E0E9BFE0E075
:10033800EBB9E8E0EAB9E6E8E0BDE0E0E0BDE3E318
:10034800E9B9A5D2E0E0EA93EA93A0E041D026D249
:100358002BD230D27894E0916001F091610130970E
:1003680089F5AA2019F4FDD1E03009F01DC0E5E0B7
:10037800F0E0EED1E4E0F0E0EBD1A7E0B0E03ED071
:10038800E6E0F0E0E5D1E9E0F0E0E2D1E8E0F0E035
:10039800DFD1ABE0B0E04BD0E0E5F0E0D9D110D24E
:1003A80080E18AD1629608C0EEE5F0E0D1D1D3D1E0
:1003B80007D284E181D16696E4E6F0E0E09360013B
:1003C800F0936101CED1E03009F07724C4CFFFCF9C
:1003D800AA93EA81E370EA83E981E03019F0EA81BF
:1003E800E061EA83E881E03019F0EA81E068EA83B5
:1003F800FCD1A7E085D2AA81FBD146C0BA93AA93C3
:10040800F4D1A0E0F5D1F6D1FAD1A881B981F9D11A
:10041800FCD1AC81BD81EC934ED226960895AA9367
:10042800E4D1A0E0F8D1FCD100D2E2D12DC002D2B3
:10043800DCD1A3E0DDD1DED100D2E3D1AC81BD8136
:10044800E0D1E3D1A881B981EC9335D228960895FB
:10045800AA93CBD1A3E054D2AB81E7D1E1D1DBD1D0
:10046800C7D124960895AA935D9BFECFE881ECB985
:1004780021960895DFD1AA81F6DFA881B981ED918F
:10048800FD913196FE93EE9323960895D3D1269746
:10049800A9D210E0AC85BD85E0E0F0E0ED93FC93D7
:1004A800EA89FB893196EA8BFB8B3197E4912E2FF1
:1004B800E03009F4FBC0E12FE03031F4253211F4CB
:1004C80011E001C0BDD1F1C0E130A1F4253211F431
:1004D800B7D1EAC012E040E000E02D3211F401E0AB
:1004E800E4C02B3211F44BE2E0C0203211F440E2B8
:1004F800DCC002C0E23039F450E013E0203311F4DC
:100508000068D3C003C0E33009F0CFC0203310F037
:100518002A3308F007C0AAE05A9F502DE22FE05373
:100528005E0FC3C0E22FE33639F491D193D18FD156
:10053800A481AA9393D1B8C0E33729F495D196D171
:10054800F0D01E2F07C0E03749F48ED18FD1F4D0F8
:100558001E2F086002600F7730E02DC0E43611F0DE
:10056800E93611F4046002C0E53729F4E6E2F0E068
:1005780084D115E00BC0E83511F4086003C0E837F2
:1005880009F092C0E0E3F0E078D114E002FF11C076
:100598006BD176D1AB85AA2332F4EA85FB85CCD121
:1005A800EA87FB874DE2403011F01F5F01C00B7FE7
:1005B80002C05AD165D100FD10C0151770F407FFAD
:1005C80008C002FF04C00B7F242F115001C020E394
:1005D80001C020E235D15150F0CF312F01FF14C0B6
:1005E800303089F003FF05C0EE81FF81259145D1A8
:1005F80004C023D12D91AE83BF8322D1503009F09E
:1006080051503150EDCF47C020E3EE81FF81DDD15D
:10061800E887F987EE81FF8132962FD1E885F98541
:10062800AA85BB85AE17BF0750F02F5FA885B9858F
:10063800EA85FB85EA1BFB0BEA87FB87EFCF2A33AA
:1006480028F003FF02C0295F01C0295D04FD19C01D
:10065800213320F4A885B985119709F409C05317E7
:1006680010F000FF01C011C020E207FF0AC020E31C
:10067800006102FF06C00B7F4A93F0D0503009F0AA
:100688005150DED0503009F051503150A885B9850D
:10069800129708F0B9CF00FF07C0503029F0515029
:1006A800E0E2EA93DBD0F9CF10E0FACEAC85BD8565
:1006B80088D19FD164960895FF92F82E269796D1F7
:1006C800DE01149635D18D01E0E0EC83ED83EE83F5
:1006D800EF83DE0118962CD174D13AD01A930A937D
:1006E800EEE3F2E035D0DE011896D0DE86D128960A
:1006F800FF900895AA93E881E295EF70AE2FAA0FB4
:10070800AA0FEA0FEE0FA991AF70EA0F0895AA9306
:10071800A991EE27AA5012F0E05FFCCFA65FEA0F7E
:10072800089588D0A991B991EE27FF276D91662386
:1007380011F03196FBCF08957DD0AA27BB27E99108
:10074800F9910590002011F01196FBCFFD01089555
:10075800FA93EA930895EA2DFF276627772739D178
:100768000895E09165010895E09166010895A091CA
:1007780066010895B0E0EAE0F0E002D1089512B20F
:10078800F3DFEE5FA1E0DCD0E129E2BB0895B0E041
:10079800A7FDBFEFF0E0EA17FB070895E0E0B09986
:1007A800E1E0E09362010895E0E0B199E1E0E093CF
:1007B80063010895E0E0B299E1E0E09364010895EF
:1007C800E62DFF276627772704D1E52DFF27662723
:1007D8007727FFD0E42DFF2766277727FAD0E72D64
:1007E800FF2766277727F5D0089556D0A0ED88C053
:1007F80087D061C051D0A1ED83D0A1E066C0AE2FF3
:1008080079CFEC93A1E061D0FACFAA81BB81EC93B8
:10081800A0E05BD0F4CF74D0A88179DFAE2F089523
:100828006FD0A98174DFAE2F08956AD0AA816FDFD7
:10083800AE2F0895BA93AA930895AE81BF81089503
:100848002A93AD85BE85EF85F88909950895E889CD
:10085800F98908953497E88BF98B0895AD85BE859D
:10086800EF85F88909950895F2DFF4CFA889B98949
:100878001496A7D0EE83FF83E0CFEE83FF8308951D
:10088800A889B98914969DD0EA87FB870895AD9801
:10089800AC98A59AA49815C0A498A598EE2700002E
:1008A8009C9B08959D9B089504D0A49A02D0A59A74
:1008B800E1E06DE007C0A49AA59A03D0A598F9DFF6
:1008C800A4986BE16A95F1F7089578E0A598F1DFAF
:1008D8009D9BFECFEEDF88949C990894A59AF1DF42
:1008E800EE1F7A9599F77A2F772311F4A49801C00F
:1008F800A49ADFDFA598E5DFA59ADBDFA498D9CF16
:1009080078E0AA0F10F4A49801C0A49ADADFA59899
:10091800D0DF9D9BFECFCDDFA59A7A9591F7A4985D
:10092800C8DFA598CEDFE1E09C99EE27A59AC1CF54
:100938000024AF0DB01D0895F195E195F04008959C
:10094800EE230E2EEA2F19F0EE0F0A94E9F7089518
:10095800EE23E1E009F0EE2708950024112490E148
:10096800AA0FBB1F001C111C0E1A1F0A18F40E0E2A
:100978001F1E01C0A1609A9599F7FD01D001089545
:1009880012D0EBDF0EF4D8DF0895E894B7FF04C067
:10099800A095B09511966894F7FDCEDFDEDFFD01D6
:1009A8000EF4CADF0895E894F7FF02C0C5DF689423
:1009B800B7FF06C0A095B095119600F8039400FA09
:1009C8000895ED91FC91119708950590F491E02D0B
:1009D80008957A936A93FA93EA93089500240A167D
:1009E8000B0608955A934A933A932A931A930A93B3
:1009F80008955D814C813B812A8119810881089580
:00000001FF
