:0400000040C0FECF2F
:10000400FDCFFCCFFBCFFACFF9CFF8CFF7CFA5C008
:10001400F5CFF4CFF3CFF2CFF1CFF0CFEFCFEECFD8
:10002400EDCF1027E80364000A000100001000016E
:1000340010000100000000005365743A6D6F6465A0
:100044003A25640D0053657475700D007725645F5F
:1000540025643A25643A25640D007365745F6D6FF9
:1000640064653A25643A207725645F25643A2564FB
:100074003A25640D000004000A0038000000F894DA
:10008400EE27ECBBF1E0FBBFEBBFE5BF8DE0A2E0E8
:10009400BB27ED938A95E9F780E094E0A0E6ED9321
:1000A4000197E9F7EAE7F0E085919591009761F00F
:1000B400A591B59105901590BF01F00105900D92A1
:1000C4000197E1F7FB01F0CFEFE5EDBFE4E0EEBF10
:1000D400C0E6D1E095C0ECE3F0E0BDD2BFD284E04D
:1000E4006ED22696E1E0EC1531F45394E7E1E51580
:1000F40008F455241BC0E2E0EC1531F44394EBE31F
:10010400E41508F4442412C0E3E0EC1531F47394CC
:10011400EBE3E71508F4772409C0E4E0EC1531F4C7
:100124006394E7E0E61510F4E1E06E2E0895E9E447
:10013400F0E091D280E043D22296C394E4E0EC153F
:1001440050F4CC245A924A92A72DECD06A929A92F7
:100154008A92AB2D00D1089508950A921A92FA92C8
:100164006A937A938A939A93AA93BA93EA93FA93A3
:10017400EFB7EA93E2EBE2BFE0E0ED1508F4DA94BE
:10018400A0E0B099A1E0E09160016ED231F0E0917D
:100194006001E03009F49FDF6ED2B09908C0A394E7
:1001A400E6E9EA1518F4E4E6AE2E95DF01C0AA24C8
:1001B400A0E0B199A1E0E091610156D231F0E09163
:1001C4006101E03009F4B3DF5CD2A0E0B299A1E0B0
:1001D400E091620149D231F0E0916201E03009F42A
:1001E400BBDF55D2E991EFBFF991E991B991A9919A
:1001F4009991899179916991F9901990099018953B
:10020400E8EFE7BBE7E0E8BBEFE7E4BBE0E0E5BB32
:10021400EFEFE1BBE0E0E2BBE5E0E3BFE2EBE2BF2E
:10022400E0E0EFBDEEBDEDBDECBDE7BDE6BDEBBD71
:10023400EABDE9BDE8BDE2BDE5BDE4BDE3BDE1E085
:10024400E9BFE0E0E5BFEBB9E8E0EAB9E6E8E0BD24
:10025400E0E0E0BDE3E3E9B9E0E8E8B9E0E0E0BF0D
:10026400E6B9EDB9E6BF80D2E0E0EA93EA93A0E014
:1002740032D001D206D20BD27894E1E0DE1648F5F2
:10028400CC20E9F4E5E0F0E0E6D1E4E0F0E0E3D10D
:10029400A7E0B0E036D0E6E0F0E0DDD1E9E0F0E060
:1002A400DAD1E8E0F0E0D7D1ABE0B0E043D0E0E56C
:1002B400F0E0D1D1F2D180E182D1629608C0EEE5BE
:1002C400F0E0C9D1CBD1E9D184E179D16696E4E6F5
:1002D400DE2ED3CFFFCFAA93EA81E370EA83E981CC
:1002E400E03019F0EA81E061EA83E881E03019F056
:1002F400EA81E068EA83E6D1A7E06FD2AA81E5D17A
:1003040046C0BA93AA93DED1A0E0DFD1E0D1E4D114
:10031400A881B981E3D1E6D1AC81BD81EC9338D217
:1003240026960895AA93CED1A0E0E2D1E6D1EAD1EF
:10033400CCD12DC0ECD1C6D1A3E0C7D1C8D1EAD16C
:10034400CDD1AC81BD81CAD1CDD1A881B981EC9385
:100354001FD228960895AA93B5D1A3E03ED2AB81CB
:10036400D1D1CBD1C5D1B1D124960895AA935D9BA7
:10037400FECFE881ECB921960895C9D1AA81F6DFB0
:10038400A881B981ED91FD913196FE93EE93239668
:100394000895BDD126974ED210E0AC85BD85E0E02E
:1003A400F0E0ED93FC93EA89FB893196EA8BFB8BB1
:1003B4003197E4912E2FE03009F4FBC0E12FE030B7
:1003C40031F4253211F411E001C0A7D1F1C0E130BC
:1003D400A1F4253211F4A1D1EAC012E040E000E01A
:1003E4002D3211F401E0E4C02B3211F44BE2E0C0F1
:1003F400203211F440E2DCC002C0E23039F450E0B3
:1004040013E0203311F40068D3C003C0E33009F0D3
:10041400CFC0203310F02A3308F007C0AAE05A9F57
:10042400502DE22FE0535E0FC3C0E22FE33639F4C0
:100434007BD17DD179D1A481AA937DD1B8C0E33792
:1004440029F47FD180D1F0D01E2F07C0E03749F4C2
:1004540078D179D1F4D01E2F086002600F7730E094
:100464002DC0E43611F0E93611F4046002C0E5371A
:1004740029F4E6E2F0E06ED115E00BC0E83511F4A2
:10048400086003C0E83709F092C0E0E3F0E062D10D
:1004940014E002FF11C055D160D1AB85AA2332F418
:1004A400EA85FB85B6D1EA87FB874DE2403011F03F
:1004B4001F5F01C00B7F02C044D14FD100FD10C0AB
:1004C400151770F407FF08C002FF04C00B7F242F28
:1004D400115001C020E301C020E21FD15150F0CFE0
:1004E400312F01FF14C0303089F003FF05C0EE81C5
:1004F400FF8125912FD104C00DD12D91AE83BF83EF
:100504000CD1503009F051503150EDCF47C020E3A9
:10051400EE81FF8186D1E887F987EE81FF813296EB
:1005240019D1E885F985AA85BB85AE17BF0750F0B8
:100534002F5FA885B985EA85FB85EA1BFB0BEA8753
:10054400FB87EFCF2A3328F003FF02C0295F01C0E5
:10055400295D04FD19C0213320F4A885B9851197BC
:1005640009F409C0531710F000FF01C011C020E2C4
:1005740007FF0AC020E3006102FF06C00B7F4A9315
:10058400DAD0503009F05150C8D0503009F05150F1
:100594003150A885B985129708F0B9CF00FF07C07C
:1005A400503029F05150E0E2EA93C5D0F9CF10E081
:1005B400FACEAC85BD8531D144D164960895FF92BD
:1005C400F82E26973BD1DE0114961FD18D01E0E071
:1005D400EC83ED83EE83EF83DE01189616D11DD1F3
:1005E4003AD01A930A93EFEBF1E035D0DE01189676
:1005F400D0DE2BD12896FF900895AA93E881E29546
:10060400EF70AE2FAA0FAA0FEA0FEE0FA991AF70E9
:10061400EA0F0895AA93A991EE27AA5012F0E05F79
:10062400FCCFA65FEA0F089572D0A991B991EE2785
:10063400FF276D91662311F03196FBCF089567D0A3
:10064400AA27BB27E991F9910590002011F0119692
:10065400FBCFFD010895FA93EA930895EC2DFF274B
:1006640066277727E2D00895B0E0A7FDBFEFF0E05A
:10067400EA17FB070895E0E0B099E1E0E093600138
:100684000895E0E0B199E1E0E09361010895E0E0CC
:10069400B299E1E0E09362010895E62DFF27662711
:1006A4007727C3D0E52DFF2766277727BED0E42D13
:1006B400FF2766277727B9D0E72DFF2766277727F7
:1006C400B4D0089556D0A0ED88C087D061C051D071
:1006D400A1ED83D0A1E066C0AE2F8FCFEC93A1E053
:1006E40061D0FACFAA81BB81EC93A0E05BD0F4CFB8
:1006F40074D0A8818FDFAE2F08956FD0A9818ADFCF
:10070400AE2F08956AD0AA8185DFAE2F0895BA93DB
:10071400AA930895AE81BF8108952A93AD85BE85BD
:10072400EF85F88909950895E889F989089534973A
:10073400E88BF98B0895AD85BE85EF85F889099519
:100744000895F2DFF4CFA889B989149666D0EE83B0
:10075400FF83E0CFEE83FF830895A889B9891496B7
:100764005CD0EA87FB870895AD98AC98A59AA498C5
:1007740015C0A498A598EE2700009C9B08959D9B06
:10078400089504D0A49A02D0A59AE1E06DE007C0D0
:10079400A49AA59A03D0A598F9DFA4986BE16A9569
:1007A400F1F7089578E0A598F1DF9D9BFECFEEDF89
:1007B40088949C990894A59AF1DFEE1F7A9599F78D
:1007C4007A2F772311F4A49801C0A49ADFDFA598A7
:1007D400E5DFA59ADBDFA498D9CF78E0AA0F10F45F
:1007E400A49801C0A49ADADFA598D0DF9D9BFECF20
:1007F400CDDFA59A7A9591F7A498C8DFA598CEDFA6
:10080400E1E09C99EE27A59AC1CF0024AF0DB01D5D
:100814000895F195E195F0400895ED91FC911197BB
:1008240008950590F491E02D08957A936A93FA93CC
:10083400EA9308955A934A933A932A931A930A93FC
:1008440008955D814C813B812A8119810881089535
:00000001FF
