:0C0000003FC0FECFFDCFFCCFFBCFFACFFE
:10000C00F9CFF8CFF7CFB1C1F5CFF4CFF3CFF2CF13
:10001C00F1CFF0CFEFCFEECFEDCF1027E803640098
:10002C000A000100001000011000010000005365DF
:10003C00743A6D6F64653A25640D00536574757080
:10004C000D007725645F25643A25643A25640D001C
:10005C007365745F6D6F64653A25643A2077256427
:10006C005F25643A25643A25640D000002000C00FB
:10007C0038000000F894EE27ECBBF1E0FBBFEBBFBF
:10008C00E5BF8DE0A2E0BB27ED938A95E9F780E010
:10009C0094E0A0E6ED930197E9F7E8E7F0E08591AD
:1000AC009591009761F0A591B59105901590BF01C0
:1000BC00F00105900D920197E1F7FB01F0CFEFE510
:1000CC00EDBFE4E0EEBFC0E6D1E0F9C1AA93E1993F
:1000DC00FECFE981FA81FFBBEEBBE881EDBBE29A72
:1000EC00E19AC0C223D4E199FECFE881F981FFBB2C
:1000FC00EEBBE09AEDB337C1A09167014A1699F0B7
:10010C0018D41ED4E03079F0219713D4329618D439
:10011C00E883A8815A1631F421970BD4319610D468
:10012C00E88321962196409267010895EAE3F0E076
:10013C0009D40BD40DD484E0ADD326960ED4A130C3
:10014C0031F45394E7E1E51508F4552420C005D4A7
:10015C00A23031F44394EBE3E41508F4442417C0C3
:10016C00FCD3A33031F47394EBE3E71508F4772454
:10017C000EC0F6D339F46394E7E0E61510F4E1E031
:10018C006E2E05C0F0D319F0EA2DE3D4AE2E0895EF
:10019C00E7E4F0E0D7D380E07DD32296D6D3EF5FAF
:1001AC00E6D3E1D371F4D9D3A53050F0E3D35A920E
:1001BC004A92A72D28D26A929A928A92AB2D3BD260
:1001CC0010C0D1D371F0C9D3A33058F0D3D3D4D34A
:1001DC003196B8D3A42D7ADFCFD33296B3D3A52DD5
:1001EC0075DF0895C7D3E0916601EF5FE093660178
:1001FC00A0916601A23040F0F0E03297A3E0B0E0AD
:10020C00B5D4A0D3AA2D62DFA0916601A83018F056
:10021C00E0E0E0936601A7D359F0AED391D3AE2EB4
:10022C00ABD331968DD34E2EA7D3329689D35E2E77
:10023C0008957CD3E0916801EF5FE0936801A4D34B
:10024C00A63018F0E0E0E0936801E2B3E370E2BBA3
:10025C00E5B3E07FE5BBC79AE0916801E03021F49B
:10026C0065B3A52D94D32CC08FD3A13019F465B3ED
:10027C00A52D22C089D3A23021F465B3A42D87D338
:10028C001FC082D3A33019F465B3A42D15C084D339
:10029C0021F465B3A72D7BD313C081D3A1F460D314
:1002AC0019F465B3A62D08C05ED321F065B3A091F7
:1002BC00660102C065B3A72DBB27EAE0F0E073D45A
:1002CC00EF70E62BE5BB60D3A13061F05DD3A330BA
:1002DC0011F449D309F001C005C061D311F4AA206F
:1002EC0009F401C0C7985ED3A43FE1E0BE0728F52E
:1002FC004BD3A03030F048D3A23018F42ED3A13019
:10030C0009F001C030C040D3A23028F045D318F416
:10031C0024D3A23009F001C026C03ED330F034D330
:10032C00A63018F41AD3A33009F001C01CC037D37F
:10033C0011F416D309F001C016C012D311F42FD347
:10034C0008F001C010C00FD321F026D310F027D332
:10035C0008F001C008C012B2E0916801EE5FA1E0A4
:10036C00F0D3E129E2BB229608950A921A92FA92EE
:10037C006A937A938A939A93AA93BA93EA93FA9389
:10038C00EFB7EA93E3E8E2BFA0916001B09161019D
:10039C003DD438F4A0E6B1E0ED91FD913197FE9398
:1003AC00EE93A0E0B099A1E0E0916301FED231F0B0
:1003BC00E0916301E03009F4B9DEFED2B0990DC0D2
:1003CC00F60131966F01ECEDF5E0EC15FD0520F42E
:1003DC00E8EEF3E06F01AADE02C0CC24DD24A0E03D
:1003EC00B199A1E0E0916401E0D231F0E0916401B7
:1003FC00E03009F4CDDEE6D2A0E0B299A1E0E091C4
:10040C006501D3D231F0E0916501E03009F4EADE08
:10041C00DFD2A9E6B1E0E2D2E7D2A83EE3E0BE0724
:10042C0028F0E0E0E0936901E0936A01E0916B0150
:10043C00EF5FE0936B01A0916B01A43018F0E0E04A
:10044C00E0936B01E0916B01E03011F4CDD2F1DE61
:10045C008AD219F47AD2E03041F0ACE6B1E0C3D3E1
:10046C00EF5FFF4F6F4F7F4FC3D3A0916C01B091E3
:10047C006D0180916E0190916F01A13EE3E9BE0781
:10048C00E4E08E07E0E09E0760F074D2E0E0E093D9
:10049C006601E0936C01E0936D01E0936E01E093D3
:1004AC006F01E991EFBFF991E991B991A9919991F6
:1004BC00899179916991F990199009901895E8EFC3
:1004CC00E7BBE7E0E8BBEFE7E4BBE0E0E5BBEFEF61
:1004DC00E1BBE0E0E2BBE3E0E3BFE3E8E2BFE0E086
:1004EC00EFBDEEBDEDBDECBDE7BDE6BDEBBDEABDC0
:1004FC00E9BDE8BDE2BDE5BDE4BDE3BDE1E0E9BFBA
:10050C00E0E0EBB9E8E0EAB9E6E8E0BDE0E0E0BD48
:10051C00E3E3E9B9BDD2E0E0EA93EA93A0E04ED080
:10052C004BD250D255D27894E0916001F091610198
:10053C00309709F041C009D2E03011F414D209F01F
:10054C0025C0E5E0F0E0FED1E4E0F0E0FBD1A7E06F
:10055C00B0E04AD0E6E0F0E0F5D1E9E0F0E0F2D12D
:10056C00E8E0F0E0EFD1ABE0B0E055D0C5DDEEE473
:10057C00F0E0E8D1E62DECD1E52DEAD1E42DE8D17F
:10058C00E72DE6D180E186D1629610C0ECE5F0E073
:10059C00D9D1DBD1DDD1E62DDBD1E52DD9D1E42DBF
:1005AC00D7D1E72DD5D184E175D16696E4E6F0E09C
:1005BC00E0936001F0936101B7CFFFCFAA93EA817A
:1005CC00E370EA83E981E03019F0EA81E061EA83C3
:1005DC00E881E03019F0EA81E068EA830AD2A7E00A
:1005EC0090D2AA8109D23EC0A1D103D2A0E004D2FC
:1005FC0005D209D2D7D109D20CD2AC81BD81EC93F2
:10060C005BD226960895AA93F4D1A0E008D20CD21E
:10061C0010D2F2D127C08AD1ECD1A3E0EDD1EED12A
:10062C000DD2F3D1AC81BD81F0D1F3D1BBD1EC9320
:10063C0043D228960895AA93DCD1A3E062D2AB8171
:10064C00F8D1F2D1ECD1D8D124960895AA935D9B20
:10065C00FECFE881ECB92196089568D1AA81F6DF26
:10066C00A1D1BCD12396089561D12697D3D210E0A5
:10067C00AC85BD85E0E0F0E0ED93FC93EA89FB8965
:10068C003196EA8BFB8B3197E4912E2FE03009F4F5
:10069C00FBC0E12FE03031F4253211F411E001C040
:1006AC00D0D1F1C0E130A1F4253211F4CAD1EAC0A5
:1006BC0012E040E000E02D3211F401E0E4C02B32F6
:1006CC0011F44BE2E0C0203211F440E2DCC002C075
:1006DC00E23039F450E013E0203311F40068D3C059
:1006EC0003C0E33009F0CFC0203310F02A3308F0F8
:1006FC0007C0AAE05A9F502DE22FE0535E0FC3C0F3
:10070C00E22FE33639F4A4D1A6D1A2D1A481AA93C5
:10071C00A6D1B8C0E33729F4A8D1A9D1F0D01E2FA7
:10072C0007C0E03749F4A1D1A2D1F4D01E2F086044
:10073C0002600F7730E02DC0E43611F0E93611F489
:10074C00046002C0E53729F4E6E2F0E097D115E049
:10075C000BC0E83511F4086003C0E83709F092C00B
:10076C00E0E3F0E08BD114E002FF11C07ED189D11F
:10077C00AB85AA2332F4EA85FB85DFD1EA87FB87B8
:10078C004DE2403011F01F5F01C00B7F02C06DD1F4
:10079C0078D100FD10C0151770F407FF08C002FFD8
:1007AC0004C00B7F242F115001C020E301C020E2B4
:1007BC0048D15150F0CF312F01FF14C0303089F0A7
:1007CC0003FF05C0EE81FF81259158D104C036D1BD
:1007DC002D91AE83BF8335D1503009F0515031503B
:1007EC00EDCF47C020E3EE81FF8107D2E887F98780
:1007FC00EE81FF81329642D1E885F985AA85BB85C9
:10080C00AE17BF0750F02F5FA885B985EA85FB8529
:10081C00EA1BFB0BEA87FB87EFCF2A3328F003FF99
:10082C0002C0295F01C0295D04FD19C0213320F4E9
:10083C00A885B985119709F409C0531710F000FF6A
:10084C0001C011C020E207FF0AC020E3006102FFD3
:10085C0006C00B7F4A9303D1503009F05150F1D0B0
:10086C00503009F051503150A885B985129708F0D5
:10087C00B9CF00FF07C0503029F05150E0E2EA93A5
:10088C00EED0F9CF10E0FACEAC85BD85A8D1C9D198
:10089C0064960895FF92F82E2697C0D1DE01149627
:1008AC0048D18D01E0E0EC83ED83EE83EF83DE0134
:1008BC0018963FD194D146D01A930A93E3E3F3E010
:1008CC0041D0DE011896D0DEB0D12896FF90089565
:1008DC00AA93E881E295EF70AE2FAA0FAA0FEA0F48
:1008EC00EE0FA991AF70EA0F0895AA93A991EE2784
:1008FC00AA5012F0E05FFCCFA65FEA0F089516D065
:10090C00A991B991EE27FF276D91662311F03196CD
:10091C00FBCF08950BD0AA27BB27E991F99105903D
:10092C00002011F01196FBCFFD010895BA93AA9304
:10093C000895E62DF0E03197A3E0B0E017D10895CB
:10094C00DF01D0CBFA93EA930895E0916201089508
:10095C00FF276627772755D10895A0916201089546
:10096C00FCDFA4300895E0916601E0300895E09337
:10097C0062010895E0E0FBCFE0916601F0E0319771
:10098C00A3E0B0E0F3D00895A09168010895B0E021
:10099C00EAE0F0E003D10895F7DFA4300895F4DF26
:1009AC00A5300895A881B9810895B0E0A7FDBFEFE7
:1009BC00F0E0EA17FB070895E0E0B099E1E0E0937E
:1009CC0063010895E0E0B199E1E0E09364010895DA
:1009DC00E0E0B299E1E0E09365010895ED91FD91BD
:1009EC003196FE93EE930895A0916901B0916A013E
:1009FC00089553D0A0ED85C084D05EC04ED0A1ED3B
:100A0C0080D0A1E063C0AE2F63CFEC93A1E05ED0A9
:100A1C00FACFAA81BB81EC93A0E058D0F4CF71D06F
:100A2C00A88163DFAE2F08956CD0A9815EDFAE2F55
:100A3C00089567D0AA8159DFAE2F0895AE81BF818A
:100A4C0008952A93AD85BE85EF85F889099508959B
:100A5C00E889F98908953497E88BF98B0895AD8569
:100A6C00BE85EF85F88909950895F2DFF4CFA88942
:100A7C00B9891496B4D0EE83FF83E0CFEE83FF8365
:100A8C000895A889B9891496AAD0EA87FB87089596
:100A9C00AD98AC98A59AA49815C0A498A598EE27E3
:100AAC0000009C9B08959D9B089504D0A49A02D0AD
:100ABC00A59AE1E06DE007C0A49AA59A03D0A59889
:100ACC00F9DFA4986BE16A95F1F7089578E0A598A1
:100ADC00F1DF9D9BFECFEEDF88949C990894A59A3C
:100AEC00F1DFEE1F7A9599F77A2F772311F4A498FA
:100AFC0001C0A49ADFDFA598E5DFA59ADBDFA498F7
:100B0C00D9CF78E0AA0F10F4A49801C0A49ADADF28
:100B1C00A598D0DF9D9BFECFCDDFA59A7A9591F756
:100B2C00A498C8DFA598CEDFE1E09C99EE27A59AA2
:100B3C00C1CF0024AF0DB01D0895F195E195F040A3
:100B4C000895EE230E2EEA2F19F0EE0F0A94E9F712
:100B5C000895EE23E1E009F0EE270895FA9FF02DB9
:100B6C00EB9FF00DEA9FE02DF10D08952AD0F6DFF2
:100B7C000EF4E3DF08950024112490E1AA0FBB1FAB
:100B8C00001C111C0E1A1F0A18F40E0E1F1E01C099
:100B9C00A1609A9599F7FD01D001089512D0EBDF71
:100BAC000EF4CBDF0895E894B7FF04C0A095B09580
:100BBC0011966894F7FDC1DFDEDFFD010EF4BDDF99
:100BCC000895E894F7FF02C0B8DF6894B7FF06C039
:100BDC00A095B095119600F8039400FA0895ED9144
:100BEC00FC9111970895ED91FD916D917D91089572
:100BFC007E936E93FE93EE9308950590F491E02D01
:100C0C0008957A936A93FA93EA93089500240A1646
:100C1C000B0608955A934A933A932A931A930A937C
:100C2C0008955D814C813B812A8119810881089549
:00000001FF
